:100000000A128A11FC2F00308A000408840A820731
:100010000034013400340A34003464340034E834E9
:100020000334103427342534323464342F342534E7
:10003000323464342F342534323464342034003480
:100396000A128A11FE210A128A1183160313911476
:1003A60008000A128A11FE210A128A118316031303
:1003B600111408000A128A11FE210A128A118316E4
:1003C600031311150800F0000A128A11FE210A1201
:1003D6008A117008831203139300080000300A1272
:1003E6008A114A220A128A1101300A128A114A22F5
:1003F6000A128A110800831603131419032A042A01
:10040600FE2911081F39031D092A0A2AFE29080098
:10041600F100F0013A3071020318122A132A1B2A3E
:1004260030307102031C182A192A1B2AF001F00A1F
:10043600700C0800F300F201731C222A232A272AD3
:100446007008F1007108F2070310F00D0310F30CA9
:100456007308031D2F2A302A1F2A72080800F70086
:100466000F307705F4000A30F5007508F0007708BC
:10047600F60004300310F60CFF3E031D3D2A7608F5
:100486000A128A111D220A128A1174070800F30043
:1004960083120313081173080A128A1185220A129D
:1004A6008A118312031388151A30F200F830F1000E
:1004B600F10B5B2AF20B5B2A0000831203138811EF
:1004C6000800F800F601F701792A76087807F500A2
:1004D6007508840000080A128A112C230A128A1150
:1004E6000130F6070318F70A0030F7077608780791
:1004F600F5007508840083130008031D832A842AE7
:10050600682A0800F000701C892A8A2A8E2A83121B
:1005160003130816912A831203130812F01C942A57
:10052600952A972A8816982A8812701D9B2A9C2A33
:100536009E2A08179F2A0813F01DA22AA32AA52A75
:100546008817A62A88130800F401F501701CAC2A46
:10055600AD2AB32A7208F4070318F50A7308F507DB
:1005660001300310F20DF30DFF3E031DB42A0130D6
:100576000310F10CF00CFF3E031DBB2A700871043A
:10058600031DC62AC72AA92A7508F1007408F000B7
:100596000800F1000A128A11FE210A128A11831636
:1005A600031391150A128A11FE210A128A11831267
:1005B60003131308F0007008F2000A128A11FE21D4
:1005C6000A128A117103031DE92AEA2AEE2A831602
:1005D60003139112F12A831603139116111672084A
:1005E6000800283083120313940083160313910125
:1005F6009401831203132008A4002108A5002208F1
:10060600A6002308A70002300310A40DA50DA60D11
:10061600A70DFF3E031D072B2708F3002608F2004F
:100626002508F1002408F0000130F7003130F6000B
:100636002D30F5000030F4000A128A1193240A12B4
:100646008A117008FF3E8316031393008715071659
:100656000800F40074080F39F1007108F2007408FC
:10066600F039F1007108F3008312031308157308BB
:10067600F10004300310F10CFF3E031D3D2B710801
:100686000A128A1185220A128A1183120313881507
:100696004230F100F10B4D2B000083120313881139
:1006A60072080A128A1185220A128A11831203130A
:1006B60088154230F100F10B5E2B00008312031304
:1006C600881108007808790403196A2B6B2B9A2B7A
:1006D600FD01FD0A792B01300310F80DF90DFF3EDF
:1006E600031D6F2B0130FC007C08FD07F91F7C2BD6
:1006F6007D2B6E2B79087B02031D832B78087A02EB
:10070600031C862B872B8D2B7808FA027908031C8D
:10071600FB03FB0201300310F90CF80CFF3E031D2E
:100726008E2B0130FD02031D992B9A2B7D2B7B0806
:10073600F9007A08F8000800F501F601700871045E
:100746000319A62BA72BDE2BF701F70AB52B0130D1
:100756000310F00DF10DFF3E031DAB2B0130F4002D
:100766007408F707F11FB82BB92BAA2B0130031019
:10077600F50DF60DFF3E031DBA2B71087302031D1E
:10078600C62B70087202031CC92BCA2BD12B70080A
:10079600F2027108031CF303F3027514013003100F
:1007A600F10CF00CFF3E031DD22B0130F702031DA6
:1007B600DD2BDE2BB92B7608F1007508F00008005A
:1007C600F7007703031DE82BE92B0C2C74087F3EFA
:1007D600F5007508FA007A08F50004300310F50CE8
:1007E600FF3E031DF12B7508F6007608F8007A081F
:1007F6000F39F5007508F90078080A128A114A229D
:100806000A128A1179080A128A114A220A128A11D0
:10081600342C02307706031D112C122C342C74084C
:10082600BF3EF5007508FA007A08F500043003109B
:10083600F50CFF3E031D1A2C7508F6007608F80025
:100846007A080F39F5007508F90078080A128A1136
:100856004A220A128A1179080A128A114A220A12AF
:100866008A11080000300A128A1185220A128A119A
:100876008230F500DD30F400F40B3F2CF50B3F2CF5
:10088600442C03300A128A114A220A128A11213094
:10089600F5007630F400F40B4E2CF50B4E2C0000D0
:1008A60003300A128A114A220A128A114830F500C8
:1008B6006C30F400F40B5D2CF50B5D2C000003305E
:1008C6000A128A114A220A128A1102300A128A115F
:1008D6004A220A128A1102300A128A114A220A127E
:1008E6008A1108300A128A114A220A128A11003025
:1008F6000A128A114A220A128A110C300A128A1125
:100906004A220A128A1100300A128A114A220A124F
:100916008A1106300A128A114A220A128A1108001E
:100926000030FC000030FB000030FA000030F90017
:1009360073087204710470040319A22CA32CF02C02
:10094600FD01FD0AB32C0130F8000310F00DF10D86
:10095600F20DF30DF80BA82C0130F8007808FD070E
:10096600F31FB62CB72CA62C0130F8000310F90D96
:10097600FA0DFB0DFC0DF80BB92C73087702031D5D
:10098600CE2C72087602031DCE2C71087502031D4B
:10099600CE2C70087402031CD12CD22CE12C7008CA
:1009A600F4027108031C710FF5027208031C720F22
:1009B600F6027308031C730FF70279140130031053
:1009C600F30CF20CF10CF00CFF3E031DE22C01308F
:1009D600FD02031DEF2CF02CB72C7C08F3007B08DE
:1009E600F2007A08F1007908F00008008312031378
:1009F600AA000A128A11D4210A128A11D0300A12C8
:100A06008A11E6210A128A1100300A128A11E62199
:100A16000A128A110A128A11FE210A128A110A1270
:100A26008A11CB210A128A11D1300A128A11E621C3
:100A36000A128A110A128A11FE210A128A118312D7
:100A46000313A801A90101300A128A11CC220A1245
:100A56008A11F800831203132808203E84007808C0
:100A6600831380000130A8070318A90A0030A907DC
:100A76002908803AFF0080307F02031D442D07308D
:100A86002802031C472D482D262D00300A128A11F4
:100A9600CC220A128A11F800780883120313A700E1
:100AA6000A128A11DD210A128A11831203132408FD
:100AB6000A128A1132220A128A11F80083120313CB
:100AC6002A08840078088313800025080A128A11F0
:100AD60032220A128A11F800831203132A0A8400AA
:100AE60078088313800026080A128A1132220A1215
:100AF6008A11F800831203132A08023E840078083C
:100B06008313800022080A128A1132220A128A11DD
:100B1600F800831203132A08033E8400780883131F
:100B2600800021080A128A1132220A128A11F8005C
:100B3600831203132A08043E840078088313800076
:100B460020080A128A1132220A128A11F800831228
:100B560003132A08053E84007808831380000800E2
:100B6600FF3083160313860088018312031388104F
:100B76000030A3000130A2008630A100A030A00002
:100B86000A128A11F4220A128A110A128A113524CB
:100B96000A128A110A128A11F1210A128A114E309A
:100BA6000A128A11F9240A128A110B3083120313CE
:100BB600B3003308A0004E08B400B5013408A10004
:100BC6003508A2004F08B600B7013608A30037085B
:100BD600A4005008B800B9013808A5003908A600D5
:100BE6003A300A128A1176260A128A110B308312BB
:100BF6000313B3003308A0005108B400B50134084C
:100C0600A1003508A2005208B600B7013608A300B5
:100C16003708A4005308B800B9013808A5003908F8
:100C2600A60044300A128A1176260A128A11033067
:100C360083120313B3003308F40001300A128A1139
:100C4600E3230A128A1144300A128A1164220A1214
:100C56008A11033083120313B3003308F400023001
:100C66000A128A11E3230A128A113A300A128A11E9
:100C760064220A128A111730831203135106031DC8
:100C8600452E462E522E34305206031D4B2E4C2E28
:100C9600522E5308031D502E512E522E8814861B99
:100CA600552E562E672E623083120313B40065301C
:100CB600B300B30B5C2EB40B5C2E83120313861B9E
:100CC600652E662E672E8814213083120313B40016
:100CD6007530B300B30B6D2EB40B6D2E722ED22D64
:100CE6000A128A11002883120313B1002130A700CB
:100CF6002708AA00E52F253032060319832E842EF5
:100D0600902E3208A700310884002708831380003C
:100D16000130A7002708B107E52FAF01B001AC01EC
:100D2600200884000A128A1103200A128A110A1264
:100D36008A110B220A128A11031CA22EA32EE32E5D
:100D460083120313AF01B0010A30F0000030F10046
:100D5600831203133008F3002F08F2000A128A11D7
:100D6600A7220A128A11710883120313B0007008B1
:100D7600AF00200884000A128A1103200A128A1181
:100D8600D03EA700FF3003180030A8002708AF07A1
:100D96000318B00A2808B0070130A7002708A007E3
:100DA600200884000A128A1103200A128A110A12E4
:100DB6008A110B220A128A110318E22EE32EA72E9D
:100DC600013083120313A007FF30200784000A12A4
:100DD6008A1103200A128A11B200A700A801280866
:100DE600003A0319F72EE52F2708003A0319F72FC3
:100DF600643A0319022F0D3A0319022FE52F2A0828
:100E0600840083130008AD00840A0008AE00023097
:100E1600A7002708AA07AE1F112F122F1B2F03307A
:100E2600A7002708AC04AD09AE09AD0A0319AE0A3E
:100E3600B201B20A3208A7002707013E84000A124F
:100E46008A1103200A128A11A8000A128A110320A5
:100E56000A128A11A90029082E02031D342F280818
:100E66002D020318372F382F392F432F0130A700B3
:100E76002708B20705303206031D422F432F1D2FC8
:100E86002F0830040319482F492F552F2C080339F2
:100E960003194E2F4F2F552FFF30AF070318B00AF7
:100EA600FF30B0073008803A803C031D5C2F2F08C6
:100EB600320203185F2F602F6C2F83120313320840
:100EC600A700A8012708AF022808031CB003B00238
:100ED600702F83120313AF01B0012F0830040319DA
:100EE600752F762F8D2F2030A70031088400270814
:100EF600831380000130A7002708B107FF30AF0732
:100F06000318B00AFF30B0072F083004031D8C2FDA
:100F16008D2F762F2C0803390319922F932F9E2F8E
:100F26002D30A70031088400270883138000013084
:100F3600A7002708B1073208A7002708AB00DC2F57
:100F46000A30F8000030F9002B08A7002707013EF9
:100F560084000A128A1103200A128A11F0000A126A
:100F66008A1103200A128A11F1002E08F3002D08B7
:100F7600F2000A128A119F230A128A117108FB00D5
:100F86007008FA000A128A1165230A128A11780873
:100F9600303E83120313A8002808B2003208A700C7
:100FA600310884002708831380000130A700270832
:100FB600B107FF30A7002708AB072B0A031DE42F54
:100FC600E52FA32F0130A007FF30200784000A1267
:100FD6008A1103200A128A11A7002708B2003208D4
:100FE600031DF62FF72F7E2E310884008313800110
:0A0FF600080083010A128A11B32DCE
:08400000FF3FFF3FFF3FFF3FC0
:02400E007A3FF7
:00000001FF
